:020000020000FC
:100000000C94720000232629006B6C6D0102EF93A3
:10001000FF938F93E5E0F0E0E4913296FF27808133
:1000200084608083E5E0F0E0E4913196FF278081F1
:100030008460808384E18A95F1F78F91FF91EF913D
:100040000895EF93FF930F931F938F939F93E5E092
:10005000F0E0E4913296FF2780818460808384E120
:100060008A95F1F790915F00F89480818B7F80836F
:1000700084E18A95F1F718E0808100FD846000FF3B
:100080008B7F06958083000083E18A95F1F71A95AE
:1000900099F780818460808390935F009F918F9116
:1000A0001F910F91FF91EF9108950F93EF93FF939D
:1000B0000591003019F00E942100FACFFF91EF91D5
:1000C0000F910895766D353237372E61767220762E
:1000D000302E310D0A000D0A506F7765726564206D
:1000E00062792000F89488E080935E008FEF80931F
:1000F0005D00882481E0982E8FEFA82E9091540007
:10010000A89580915400877F80935400809160006F
:1001100088618093600080E0809360000E94070007
:10012000E6EDF0E00E945500E4ECF0E00E9455009E
:10013000809254000C940B011895F894D0C0F89458
:10014000C0935D00D0935E007894E7FDFF27EE0F2B
:10015000F695EE1FCE1BDF0BFF91EF91F880FF921B
:10016000F980FF92FA80CB81DF2D08958F938091E3
:100170005F00F894019F002D112D80935F008F91F7
:1001800008951F930DEC0E94B600012F0695069569
:1001900006951F9108958F93000F802F000F000F79
:1001A000080F8F9108958F939F931F930F93992713
:1001B00083E0102F0E94C1000F930E94CB00101B00
:1001C0000F9109F4939598111F938A9591F79030A8
:1001D00011F491E08F920F91005D0E9421009A9599
:1001E000D1F70F911F918F919F910895747275654A
:1001F000000066616C736500EF93FF9300FDECEE09
:1002000000FDF1E000FFE2EF00FFF1E00E94550089
:10021000FF91EF9108950C940E010F0001E40E94EC
:10022000210003E40E94210004E40E94210041E037
:10023000433019F400E20E94210050E0052F00FF36
:1002400003C002E30E94D300503019F403E30E947C
:10025000D30061E0690D72E0790D072F060F0230BF
:1002600020F406E40E94210003C007E40E9421005C
:10027000062F071718F011F009E501C00EE40E94DF
:10028000D30009E50E94D3000EE40E94D300EF934F
:10029000FF938F921AD000FF02C009E501C00EE45F
:1002A0000E94D300EF93FF938F920FD000FF05C001
:1002B000EF93FF939F9209D004C0EF93FF938F9227
:1002C00004D00E94FC000C949D00CF93DF93C0915A
:1002D0005D00D0915E000D810095E1E00C949F00DF
:00000001FF
