:020000020000FC
:100000000C94720000232629006B6C6D0102EF93A3
:10001000FF938F93E5E0F0E0E4913296FF27808133
:1000200084608083E5E0F0E0E4913196FF278081F1
:100030008460808384E18A95F1F78F91FF91EF913D
:100040000895EF93FF930F931F938F939F93E5E092
:10005000F0E0E4913296FF2780818460808384E120
:100060008A95F1F790915F00F89480818B7F80836F
:1000700084E18A95F1F718E0808100FD846000FF3B
:100080008B7F06958083000083E18A95F1F71A95AE
:1000900099F780818460808390935F009F918F9116
:1000A0001F910F91FF91EF9108950F93EF93FF939D
:1000B0000591003019F00E942100FACFFF91EF91D5
:1000C0000F910895766D353237372E61767220762E
:1000D000302E310D0A000D0A506F7765726564206D
:1000E00062792000F89488E080935E008FEF80931F
:1000F0005D00882481E0982E8FEFA82E9091540007
:10010000A89580915400877F80935400809160006F
:1001100088618093600080E0809360000E94070007
:10012000E6EDF0E00E945500E4ECF0E00E9455009E
:10013000809254000C94FB001895F89480C0F894B9
:10014000DF90CF90FF91EF91CF92DF927894089556
:100150004F93EF93FF93AF93BF9341E2AA1BBB274B
:10016000EE27FF27001F111F221F331F4A9589F01A
:10017000AA1FBB1FEE1FFF1FA81BB90BE60BF70B37
:1001800010F00894EFCFA80FB91FE61FF71F88944F
:10019000E9CFCD01BF01BF91AF91FF91EF914F9199
:1001A00008950F931F932F933F938F939F936F9374
:1001B0007F93AF93992766277727A9E08AE00E946B
:1001C000A8008F93AA95D1F70F9366277AE00F9135
:1001D000713011F0602B19F0005D0E9421007A95BA
:1001E000B1F7AF917F916F919F918F913F912F9137
:1001F0001F910F9108950C9419010F0044E053E0F2
:1002000062E071E0490D581D681D781D703049F499
:10021000603039F4503029F4403019F48A019B01E0
:1002200006C08A019B010C5E1E4D214E344E0C947B
:100230009F00EF93FF93E2DF0E94D1000C949D009A
:00000001FF
