:020000020000FC
:100000000C94340000232629006B6C6D0102EF93E1
:10001000FF938F93E5E0F0E0E4913296FF27808133
:1000200084608083E5E0F0E0E4913196FF278081F1
:100030008460808384E18A95F1F78F91FF91EF913D
:10004000089589920197E9F70895CF93DF938F93ED
:100050009F93C0E0D1E080E190E00E9421009F9159
:100060008F91DF91CF910895F89488E080935E009E
:100070008FEF80935D00882481E0982E8FEFA82E6B
:1000800090915400A89580915400877F80935400EC
:100090008091600088618093600080E080936000C0
:1000A0000E940700809254000E9425000C94A40333
:1000B0001895F89461C4F695E795F695E795F69549
:1000C000E7950895EE0FFF1FEE0FFF1FEE0FFF1FC6
:1000D0000895069517950695179506951795069513
:1000E00017950695179506951795069517950895F2
:1000F0000102040810204080EF93FF93E0EFF0E04E
:10010000E80FF81D8491FF91EF910895E12FE02B06
:1001100011F408940895CF93DF930F931F932F93B7
:100120008F939F935F9351E0103011F4053020F0CE
:100130000E94DD0058E008C0013021F00E94C80094
:1001400052E002C00E94B90058F450FF0E94B9006A
:1001500038F451FF0E94C80018F453FF0E94DD00DC
:100160005F919F918F912F911F910F91DF91CF916F
:10017000089520E12030089451F0C0E1D1E00E94C0
:100180003A0128F084E4E80F81E0F81F889408958C
:1001900020E12030089481F016950795081D181D60
:1001A000C0E2D1E00E943A0138F0EE0FFF1F84EC6C
:1001B000E80F81E0F81F8894089524E12030089426
:1001C00099F0C02F0E947100C77011F0090D181D21
:1001D000C0E3D1E00E943A0138F00E94620084E45A
:1001E000E80F82E0F81F88940895CF93DF93EF9390
:1001F000FF930F931F932F933F938F939F93F13010
:1002000018F039F4E43C28F4C0E1D1E0E454F140C2
:100210001DC0F23018F069F4E43458F4C0E2D1E0C3
:10022000E45CF140F695E79516950795081D181DB5
:100230000DC0C0E3D1E0E454F2400E945B00202FE7
:100240000E947100277011F0081D181D3E2F377095
:100250000E945B00CE0FDF1F20E00E9460019F9193
:100260008F913F912F911F910F91FF91EF91DF910E
:10027000CF91089550E0A0E0B0E048814F3F91F069
:1002800088E0440F50F0503021F4FD0151E0982FE8
:10029000B8016150704069F001C050E011968A9534
:1002A00081F702C0189650E021962A9531F70894FC
:1002B000089538E0391B21E00E9460018894089578
:1002C000103061F4093050F480E8013041F088E0EA
:1002D000801B0E947C008A95809501C08FEF48E0CA
:1002E000431B041B104010F400271127303049F045
:1002F000343020F082958F70345019F086953A95FD
:10030000E9F70E949601902F0E94710021F00E944F
:1003100096010A95E1F7977041F088E0891B0E94E9
:100320007C008A9580950E9496010895488120302E
:1003300019F48095482301C0482B49930895EF9301
:10034000FF930E948600DF01819201501040B9F7AF
:100350008D01FF91EF9108958F9380915F00F89444
:10036000019F002D112D80935F008F910895AF9311
:10037000BF93CF93DF935F93CC27DD27512F0F934C
:10038000122FEADFD8010F91132FE6DFB00FC11F44
:10039000D81D052F122FE0DFB00FC11FD81D052F6C
:1003A000132FDADFC00FD11F8D019E015F91DF9106
:1003B000CF91BF91AF910895CF93DF93C0915D002E
:1003C000D0915E000F931F932F933F93EF93FF9372
:1003D0005F934F934C91542F4370FD013396242F1C
:1003E000220FA20FB81D2496088119814030E1F038
:1003F00022813381BCDF413029F42A81020F3B8105
:10040000131F12C024813581B2DF1F930F930A811D
:100410001B8124813581ABDF2F91020F3F91131F88
:100420002C81020F3D81131F5295537021F0000F54
:10043000111F5A95E1F70D5F1F4FA00FB11F4F918C
:100440005F91FF91EF913F912F911F910F91DF915C
:10045000CF9108950F9311960C91003009F453C079
:1004600003950C9311974FC02F9311962C91203028
:1004700009F449C02A952C9309F045C0EF93FF93E6
:10048000FD010E94F5001197EF91FF912F910895C2
:100490000F931F93AF93BF9311960C91003099F176
:1004A0000A950C9381F54F935F9311974C91542FBC
:1004B00043704F9352955370129613960D911D9160
:1004C000442351F02F933F932D913D910E94B7010A
:1004D0004A95D1F73F912F91552321F0000F111F1D
:1004E0005A95E1F74F91440F4B5F040F181DEF939E
:1004F000FF93FD010E94F500FF91EF915F914F91F5
:10050000BF91AF911F910F910895CF93DF93C09149
:100510005D00D0915E00EF93FF930F931F932F9395
:100520003F938F935F93AF93BF938C91582F8370BA
:100530008F9310E005E0FD010E9486003193A193A6
:10054000B193249615963370831B099119912D91BF
:100550003D910E94B7012D913D910E94B7018F3FBF
:1005600069F0A2500F931F93099119912D913D911C
:100570000E94B7012F91020F2F91121F52955370B5
:1005800021F0000F111F5A95E1F78F91880F8D5FB1
:10059000080F181DAF910A0FBF911B1F0193108305
:1005A000DF018F915F913F912F911F910F91FF91EB
:1005B000EF91DF91CF9108950F9311960C91BC911B
:1005C000A02F0F910895F894DF90CF90FF91EF91B5
:1005D000CF92DF9278940895F894C0935D00D09301
:1005E0005E007894E7FDFF27EE0FF695EE1FCE1B19
:1005F000DF0BFF91EF91F880FF92F980FF92FA8074
:10060000CB81DF2D0895EF93FF930F931F938F936B
:100610009F93E5E0F0E0E4913296FF2780818460CB
:10062000808384E18A95F1F790915F00F89480814E
:100630008B7F808384E18A95F1F718E0808100FD4B
:10064000846000FF8B7F06958083000083E18A959C
:10065000F1F71A9599F780818460808390935F0009
:100660009F918F911F910F91FF91EF910895AF93FB
:10067000BF9381E1BB1BAA27001F111F8A9559F068
:10068000AA1FBB1FA21BB30B10F00894F5CFA20F3B
:10069000B31F8894F1CFCD01BF91AF9108950F930F
:1006A0001F938F939F937F9374E090E08AE00E9462
:1006B00037038F937A95C9F70F93882775E00F91C9
:1006C000713011F0802B19F0005D0E9403037A95C0
:1006D000B1F77F919F918F911F910F9108951F9373
:1006E0000DEC0E94AC01012F0695069506951F9111
:1006F00008958F93000F802F000F000F080F8F9128
:1007000008958F939F931F930F93992783E0102F42
:100710000E946F030F930E947903101B0F9109F43D
:10072000939598111F938A9591F7903011F491E069
:100730008F920F91005D0E9403039A95D1F70F915C
:100740001F918F919F9108950C94A7030F00CF9351
:10075000DF93C0915D00D0915E0005E010E08F92C4
:100760000A95E9F71A95D9F70BE110E00E949F016D
:100770009D929D9239E03D9334E03D938D9235E01A
:100780003D938D92A80104E010E00E944F03DA012E
:1007900030E80E948502B801DB010E94DC020E9461
:1007A0002A029F928F92DB010E94DC010D910E9430
:1007B000810332E03F938F92DB010E94DC010D91B7
:1007C0000E9481030FE010E00E949F018D929D9294
:1007D00039E03D933AE03D938D920883C152D04079
:1007E00018A30AE010E0C8010E944F0300E110E0E6
:1007F0000E949F019D929D9239E03D9333E03D938D
:100800008D9233E03D938D920F8F1E8FAF8DBE8DF5
:100810001A960D91AF8DBE8D18960D93A9A1B8A112
:1008200016960D910F93A9A1B8A115960D91FF9061
:100830000F0D0D8FEF93FF93F9A0FF92F8A0FF9299
:1008400065D00E948103EF93FF9332E03F936ED017
:100850009F928F928D010E94DC010D910E94810375
:10086000EF93FF9387D010E01F930F93A9A1B8A136
:100870000E94DC018D92EF93FF937CD010E01F93D8
:100880000F93A9A1B8A10E94DC010D910D8FA9A120
:10089000B8A115963C91390D3D93A9A1B8A1159623
:1008A0003C9139193D93EF93FF9335E03F933ED050
:1008B0008F928F928D010E94DC010D910F93EF9327
:1008C000FF93F9A0FF92F8A0FF9220D010E01F93B1
:1008D0000F93A9A1B8A10E94DC010D91FF900F0D0B
:1008E0000F93A9A1B8A11596FD90FF928F92A9A18F
:1008F000B8A10E94DC01FD90FF928F92A9A1B8A13E
:100900000E94DC010F910D930C945900CF93DF935B
:10091000C0915D00D0915E009F928F92AE81BD81AB
:100920000E94DC010D91E2E00C94EC02CF93DF9386
:10093000C0915D00D0915E000D81CF93DF9310E0F8
:100940001F930F93C0915D00D0915E002196099195
:1009500019910B5F1F4F0E949F018D929D9239E06C
:100960003D933F913D933F913D93DF91CF91E1E0E6
:0A0970000C94EC0203E00C94E30287
:00000001FF
