:020000020000FC
:100000000C94210000232629006B6C6D0102EF93F4
:10001000FF938F93E5E0F0E0E4913296FF27808133
:1000200084608083E5E0F0E0E4913196FF278081F1
:100030008460808384E18A95F1F78F91FF91EF913D
:100040000895F89488E080935E008FEF80935D00C0
:10005000882481E0982E8FEFA82E90915400A895C7
:1000600080915400877F8093540080916000886164
:100070008093600080E0809360000E94070080927F
:1000800054000C9444031895F894AEC3F695E79584
:10009000F695E795F695E7950895EE0FFF1FEE0F9D
:1000A000FF1FEE0FFF1F08950695179506951795EC
:1000B0000695179506951795069517950695179524
:1000C0000695179508950102040810204080EF93CB
:1000D000FF93E6ECF0E0E80FF81D8491FF91EF91BB
:1000E0000895E12FE02B11F408940895CF93DF9346
:1000F0000F931F932F938F939F935F9351E0103033
:1001000011F4053020F00E94C80058E008C001300A
:1001100021F00E94B30052E002C00E94A40058F4F3
:1001200050FF0E94A40038F451FF0E94B30018F45D
:1001300053FF0E94C8005F919F918F912F911F9153
:100140000F91DF91CF91089520E12030089451F074
:10015000C0E0D1E00E94250128F084E3E80F81E0AF
:10016000F81F8894089520E12030089481F01695B6
:100170000795081D181DC0E1D1E00E94250138F047
:10018000EE0FFF1F84EBE80F81E0F81F88940895BD
:1001900024E12030089499F0C02F0E945C00C770C1
:1001A00011F0090D181DC0E2D1E00E94250138F0C0
:1001B0000E944D0084E3E80F82E0F81F88940895C0
:1001C000CF93DF93EF93FF930F931F932F933F935F
:1001D0008F939F93F13018F039F4E43B28F4C0E09A
:1001E000D1E0E453F1401DC0F23018F069F4E4337B
:1001F00058F4C0E1D1E0E45BF140F695E79516953F
:100200000795081D181D0DC0C0E2D1E0E453F2406F
:100210000E944600202F0E945C00277011F0081DEC
:10022000181D3E2F37700E944600CE0FDF1F20E0C2
:100230000E944B019F918F913F912F911F910F91A0
:10024000FF91EF91DF91CF91089550E0A0E0B0E0F1
:1002500048814F3F91F088E0440F50F0503021F436
:10026000FD0151E0982FB8016150704069F001C064
:1002700050E011968A9581F702C0189650E02196B9
:100280002A9531F70894089538E0391B21E00E943F
:100290004B0188940895103061F4093050F480E8DF
:1002A000013041F088E0801B0E9467008A958095AC
:1002B00001C08FEF48E0431B041B104010F40027DF
:1002C0001127303049F0343020F082958F7034504F
:1002D00019F086953A95E9F70E948101902F0E94C6
:1002E0005C0021F00E9481010A95E1F7977041F0CE
:1002F00088E0891B0E9467008A9580950E94810191
:1003000008954881203019F48095482301C0482B76
:10031000499308950895EF93FF930E947100DF01C0
:10032000819201501040B9F78D01FF91EF9108952E
:100330008F9380915F00F894019F002D112D809381
:100340005F008F910895AF93BF93CF93DF935F9337
:10035000CC27DD27512F0F93122FEADFD8010F9101
:10036000132FE6DFB00FC11FD81D052F122FE0DFBE
:10037000B00FC11FD81D052F132FDADFC00FD11FFB
:100380008D019E015F91DF91CF91BF91AF91089553
:10039000CF93DF93C0915D00D0915E000F931F93C8
:1003A0002F933F93EF93FF935F934F934C91542F71
:1003B0004370FD013396242F220FA20FB81D2496FF
:1003C000088119814030E1F022813381BCDF413066
:1003D00029F42A81020F3B81131F12C02481358129
:1003E000B2DF1F930F930A811B8124813581ABDF1C
:1003F0002F91020F3F91131F2C81020F3D81131F7C
:100400005295537021F0000F111F5A95E1F70D5FBF
:100410001F4FA00FB11F4F915F91FF91EF913F913F
:100420002F911F910F91DF91CF9108958F93859117
:100430008D930150E1F71040D1F78F910895EF931C
:10044000FF930F931F938F939F93E5E0F0E0E49168
:100450003296FF2780818460808384E18A95F1F75A
:1004600090915F00F89480818B7F808384E18A95EE
:10047000F1F718E0808100FD846000FF8B7F069516
:100480008083000083E18A95F1F71A9599F78081BE
:100490008460808390935F009F918F911F910F9153
:1004A000FF91EF910895AF93BF9381E1BB1BAA2702
:1004B000001F111F8A9559F0AA1FBB1FA21BB30B67
:1004C00010F00894F5CFA20FB31F8894F1CFCD019F
:1004D000BF91AF9108950F931F938F939F937F9335
:1004E00074E090E08AE00E9453028F937A95C9F7F6
:1004F0000F93882775E00F91713011F0802B19F060
:10050000005D0E941F027A95B1F77F919F918F91B4
:100510001F910F9108951F930DEC0E949801012FD8
:100520000695069506951F9108958F93000F802FCD
:10053000000F000F080F8F9108958F939F931F93C3
:100540000F93992783E0102F0E948B020F930E9434
:100550009502101B0F9109F4939598111F938A959A
:1005600091F7903011F491E08F920F91005D0E940D
:100570001F029A95D1F70F911F918F919F91089526
:10058000AF93BF93CF93DF93D801E90100271127E1
:100590002227332750E2769567959795879520F423
:1005A0000A0F1B1F2C1F3D1FDD0FCC1FBB1FAA1FD7
:1005B0005A9589F7DF91CF91BF91AF9108954F93ED
:1005C000EF93FF93AF93BF9341E2AA1BBB27EE27A4
:1005D000FF27001F111F221F331F4A9589F0AA1FF2
:1005E000BB1FEE1FFF1FA81BB90BE60BF70B10F08C
:1005F0000894EFCFA80FB91FE61FF71F8894E9CF23
:10060000CD01BF01BF91AF91FF91EF914F9108953F
:100610007F936F939F938F93AF93C80197FF06C00B
:100620000DE20E941F02809590950196092F0E946D
:100630009D020EE20E941F0230E025E015EF01EE60
:1006400070E060E090E00E94C002A1E08AE00E94B9
:10065000DF028F93A3950023C9F71123B9F7222353
:10066000A9F7332399F70F91005D0E941F02AA9505
:10067000D1F7AF918F919F916F917F9108958000F5
:10068000000000000000FD640C9447030F00CF93AE
:10069000DF93C0915D00D0915E008F928F924EEFFC
:1006A000490D03E110E00E948B0131E13D939D92E1
:1006B00039E03D9333E03D938D9232E03D938D924E
:1006C0001F930F93EF93FF93EEE7F6E006E010E041
:1006D0000E941602FF91EF91102F00E0042F10E00E
:1006E0000D931D93EF93FF93E4E8F6E004E010E030
:1006F0000E941602FF91EF910F911F91B801DB014B
:1007000017960D911D910E94080358E0052F10E0E7
:10071000CF93DF931F930F93C0915D00D0915E0044
:10072000219609911991000F111F0B5F1F4F0E9415
:100730008B0130E13D939D9239E03D933F913D9394
:100740003F913D93DF91CF91C8019F928F92DC0141
:100750000E94C80133E03D938D929882C152D040EF
:1007600098A239A1390D39A338A1381D38A309A1A0
:1007700018A133E03F938F92DC010E94C8013E91A3
:10078000131709F068F43E91031750F433E03F93D8
:100790008F92DC010E94C8010D911D910E946B0295
:1007A0009F928F92DC010E94C8010D911D91102F24
:1007B00000E01F930F93DB0117960F911F910D938C
:1007C0001D93EF93FF93FB010E948A01FF91EF912C
:1007D00060E070E0EF93FF93FC010E948A01FF91BB
:0A07E000EF9180E090E00C944400DB
:00000001FF
