:020000020000FC
:100000000C94070000232629006B6C6D0102F89404
:1000100084E080935E008FEF80935D00882481E010
:10002000982E8FEFA82EA89580915400877F8093FB
:1000300054008091600088618093600080E8809324
:1000400060000C948800F894FFCF0102040810208F
:1000500040808F93802F0F70EAE4F0E0E00FF81DEE
:10006000049182958F70E4E0F0E0E80FF81DE491D0
:10007000F0E08F9108958F939F9390915F00F89493
:10008000808180278083802390935F008A0D9F91D9
:100090008F9108950F3F09F40895EF93FF930F9305
:1000A0000E94290032960E943B000F91FF91EF9130
:1000B00008958F939F9390915F00F8948081802B97
:1000C000808390935F009F918F9108950F3F09F473
:1000D0000895EF93FF930F930E94290031960E9499
:1000E00059000F91FF91EF9108951F930F938F93F4
:1000F0009F939EE286E500008A95E9F79A95D1F7ED
:1001000001501040B0F79F918F910F911F9108956A
:100110000C948B00160005E10E94660002E310E0DB
:0C0120000E94750005E10E944A00F8CF23
:00000001FF
