:020000020000FC
:100000000C94760000232629006B6C6D0102899206
:100010000197E9F70895EF93FF938F93E5E0F0E000
:10002000E4913296FF27808184608083E5E0F0E0F0
:10003000E4913196FF2780818460808384E18A95F2
:10004000F1F78F91FF91EF910895EF93FF930F9345
:100050001F938F939F93E5E0F0E0E4913296FF27A2
:1000600080818460808384E18A95F1F790915F00BC
:10007000F89480818B7F808384E18A95F1F718E082
:10008000808100FD846000FF8B7F069580830000E7
:1000900083E18A95F1F71A9599F7808184608083CE
:1000A00090935F009F918F911F910F91FF91EF911E
:1000B00008950F93EF93FF930591003019F00E947C
:1000C0002500FACFFF91EF910F910895766D3532AB
:1000D00037372E6176722076302E310D0A000D0AE8
:1000E000506F77657265642062792000F89488E02B
:1000F00080935E008FEF80935D00882481E0982ECE
:100100008FEFA82E90915400A89580915400877F7E
:10011000809354008091600088618093600080E04B
:10012000809360000E940B00EEEDF0E00E94590009
:10013000ECECF0E00E94590080925400C0E0D1E065
:1001400083E090E00E9407000C947B021895F894DD
:100150000DC2F695E795F695E795F695E79508951E
:10016000EE0FFF1FEE0FFF1FEE0FFF1F0895069506
:100170001795069517950695179506951795069563
:100180001795069517950695179508950102040889
:1001900010204080EF93FF93ECE8F1E0E80FF81DAA
:1001A0008491FF91EF910895E12FE02B11F40894D1
:1001B0000895CF93DF930F931F932F938F939F9364
:1001C0005F9351E0103011F4053020F00E942B01B4
:1001D00058E008C0013021F00E94160152E002C030
:1001E0000E94070158F450FF0E94070138F451FFA4
:1001F0000E94160118F453FF0E942B015F919F91FA
:100200008F912F911F910F91DF91CF91089520E150
:100210002030089451F0C3E0D1E00E94880128F01A
:1002200087E3E80F81E0F81F8894089520E12030EB
:10023000089481F016950795081D181DC3E1D1E0BB
:100240000E94880138F0EE0FFF1F87EBE80F81E076
:10025000F81F8894089524E12030089499F0C02F65
:100260000E94BF00C77011F0090D181DC3E2D1E054
:100270000E94880138F00E94B00087E3E80F82E016
:10028000F81F88940895CF93DF93EF93FF930F9314
:100290001F932F933F938F939F93F13018F039F46E
:1002A000E73B28F4C3E0D1E0E753F1401DC0F23052
:1002B00018F069F4E73358F4C3E1D1E0E75BF140AB
:1002C000F695E79516950795081D181D0DC0C3E214
:1002D000D1E0E753F2400E94A900202F0E94BF0006
:1002E000277011F0081D181D3E2F37700E94A900BD
:1002F000CE0FDF1F20E00E94AE019F918F913F91B2
:100300002F911F910F91FF91EF91DF91CF91089560
:1003100050E0A0E0B0E048814F3F91F088E0440F0A
:1003200050F0503021F4FD0151E0982FB801615098
:10033000704069F001C050E011968A9581F702C0C3
:10034000189650E021962A9531F70894089538E0E0
:10035000391B21E00E94AE0188940895103061F4A9
:10036000093050F480E8013041F088E0801B0E94A1
:10037000CA008A95809501C08FEF48E0431B041B9B
:10038000104010F400271127303049F0343020F0AD
:1003900082958F70345019F086953A95E9F70E944E
:1003A000E401902F0E94BF0021F00E94E4010A9511
:1003B000E1F7977041F088E0891B0E94CA008A9596
:1003C00080950E94E40108954881203019F48095B9
:1003D000482301C0482B49930895EF93FF93359626
:1003E0000550104081920150E9F71040D9F7FF9174
:1003F000EF910895F894DF90CF90FF91EF91CF9215
:10040000DF9278940895AF93BF9381E1BB1BAA2735
:10041000001F111F8A9559F0AA1FBB1FA21BB30B07
:1004200010F00894F5CFA20FB31F8894F1CFCD013F
:10043000BF91AF9108950F931F938F939F937F93D5
:1004400074E090E08AE00E9403028F937A95C9F7E6
:100450000F93882775E00F91713011F0802B19F000
:10046000005D0E9425007A95B1F77F919F918F9151
:100470001F910F9108958F9380915F00F894019FD1
:10048000002D112D80935F008F9108951F930DEC27
:100490000E943B02012F0695069506951F9108952F
:1004A0008F93000F802F000F000F080F8F9108957A
:1004B0008F939F931F930F93992783E0102F0E9490
:1004C00046020F930E945002101B0F9109F493955E
:1004D00098111F938A9591F7903011F491E08F92C3
:1004E0000F91005D0E9425009A95D1F70F911F9101
:1004F0008F919F9108950C949A020F0090920001A1
:1005000032E030930101809202010895100085824B
:10051000089506E010E00E94D40000831183A282B7
:100520000CE0038305E004830E94ED010E94870232
:100530000C94FA013FE0309300013EE0309301015A
:100540008092020100910101109102010E941B02A0
:10055000EF93FF93DEDFA801DA01159630E13D93BA
:0E056000DA0115960D910E9458020C94A70026
:00000001FF
