:020000020000FC
:100000000C94250000232629006B6C6D0102899257
:100010000197E9F70895EF93FF938F93E5E0F0E000
:10002000E4913296FF27808184608083E5E0F0E0F0
:10003000E4913196FF2780818460808384E18A95F2
:10004000F1F78F91FF91EF910895F89488E08093F4
:100050005E008FEF80935D00882481E0982E8FEF03
:10006000A82E90915400A89580915400877F80938A
:1000700054008091600088618093600080E08093EC
:1000800060000E940B0080925400C0E0D1E083E049
:1000900090E00E9407000C94FC001895F894D6C0DC
:1000A000EF93FF930F931F938F939F93E5E0F0E0FF
:1000B000E4913296FF2780818460808384E18A9571
:1000C000F1F790915F00F89480818B7F808384E1C9
:1000D0008A95F1F718E0808100FD846000FF8B7F36
:1000E00006958083000083E18A95F1F71A9599F7C8
:1000F00080818460808390935F009F918F911F9196
:100100000F91FF91EF910895AF93BF9381E1BB1BD6
:10011000AA27001F111F8A9559F0AA1FBB1FA21BF7
:10012000B30B10F00894F5CFA20FB31F8894F1CF52
:10013000CD01BF91AF9108950F931F938F939F931C
:100140007F9374E090E08AE00E9484008F937A9518
:10015000C9F70F93882775E00F91713011F0802B4C
:1001600019F0005D0E9450007A95B1F77F919F9140
:100170008F911F910F9108958F9380915F00F89454
:10018000019F002D112D80935F008F9108951F9383
:100190000DEC0E94BC00012F0695069506951F9157
:1001A00008958F93000F802F000F000F080F8F917D
:1001B00008958F939F931F930F93992783E0102F98
:1001C0000E94C7000F930E94D100101B0F9109F4E9
:1001D000939598111F938A9591F7903011F491E0BF
:1001E0008F920F91005D0E9450009A95D1F70F9168
:1001F0001F918F919F9108950C9405010F0080929B
:10020000000130E830930101089530910001390D6B
:100210003093000130910101381D309301010091AC
:100220000001109101010E949C003EE63093020102
:1002300000910201402F0E94D90004E30E94D900DE
:0E0240000C944E00110032E03093020108953C
:00000001FF
