:020000020000FC
:100000000C94760000232629006B6C6D01020D9381
:100010002197E9F70895EF93FF936F93E5E0F0E000
:10002000E4913296FF27608164606083E5E0F0E050
:10003000E4913196FF2760816460608364E16A9592
:10004000F1F76F91FF91EF910895EF93FF930F9365
:100050001F936F937F93E5E0F0E0E4913296FF27E2
:1000600060816460608364E16A95F1F770915F007C
:10007000F89460816B7F608364E16A95F1F718E022
:10008000608100FD646000FF6B7F06956083000067
:1000900063E16A95F1F71A9599F76081646060836E
:1000A00070935F007F916F911F910F91FF91EF917E
:1000B00008950F93EF93FF930591003019F00E947C
:1000C0002500FACFFF91EF910F910895766D3532AB
:1000D00037372E6176722076302E310D0A000D0AE8
:1000E000506F77657265642062792000F89468E04B
:1000F00060935E006FEF60935D00882461E0962E50
:100100006FEFA62E70915400A89560915400677F00
:10011000609354006091600068616093600060E0EB
:10012000609360000E940B00EEEDF0E00E94590029
:10013000ECECF0E00E945900809254000C943502DF
:100140001895F695E795F695E795F695E795089550
:10015000EE0FFF1FEE0FFF1FEE0FFF1F0895169506
:1001600007951695079516950795089501020408B9
:1001700010204080EF93FF93ECE6F1E0E60FF81DCE
:100180006491FF91EF910895E12FE02B11F441E08C
:100190000895CF93DF930F931F932F936F937F93C4
:1001A0005F9351E0103011F4053020F00E942201DD
:1001B00058E008C0013021F00E940B0152E002C05B
:1001C0000E94FA00403069F050FF0E94FA0040306F
:1001D00041F051FF0E940B01403019F053FF0E9483
:1001E00022015F917F916F912F911F910F91DF916C
:1001F000CF91089520E1203011F441E00895C0E04E
:10020000D1E00E948701403009F0089564E3E60FD1
:1002100061E0F61F089520E1203011F441E00895D7
:1002200016950795081D181DC0E1D1E00E948701B1
:10023000403009F00895EE0FFF1F64EBE60F61E018
:10024000F61F089524E1203011F441E00895C02FF5
:100250000E94AF00C77011F0090D181DC0E2D1E077
:100260000E948701403009F008950E94A80064E3CD
:10027000E60F62E0F61F0895CF93DF93EF93FF93AD
:100280000F931F932F933F936F937F93F13018F049
:1002900039F4E43B28F4C0E0D1E0E453F14023C05A
:1002A000F23018F079F4E43368F4C0E1D1E0E45BB3
:1002B000F140F695E795E81DF81D16950795081D80
:1002C000181D11C0C0E2D1E0E453F2404E2F0E944D
:1002D000A100477009F03196402F0E94AF0047708F
:1002E0004150081D181D3E2F37700E94A100CE0FEF
:1002F000DF1F20E00E94AC017F916F913F912F9111
:100300001F910F91FF91EF91DF91CF91089550E0F0
:10031000A0E0B0E048814F3F89F068E0440F48F02A
:10032000503021F4FD0151E0762FC801019769F0AA
:1003300001C050E011966A9589F702C0189650E006
:1003400021962A9539F741E006C038E0371B21E0B5
:100350000E94AC0140E00895103061F4093050F47F
:1003600060E8013041F068E0601B0E94BA006A95C5
:10037000609501C06FEF48E0431B041B104010F470
:1003800000271127303049F0343020F062956F702B
:10039000345019F066953A95E9F70E94E201702F02
:1003A0000E94AF0021F00E94E2010A95E1F7777008
:1003B00041F068E0671B0E94BA006A9560950E9450
:1003C000E20108954881203019F46095462301C068
:1003D000462B499308956F937F938F93602F712FCE
:1003E0000027112755278827769510F4060F181F28
:1003F000660F881F7030C1F78F916F917F910895BC
:100400001F930DEC0E94EB01012F069506950695B2
:100410001F9108956F93000F602F000F000F060FBC
:100420006F9108956F937F931F930F93772763E0E6
:10043000102F0E9400020F930E940A02101B0F91BE
:1004400009F4739578111F936A9591F7703011F440
:1004500071E08F920F91005D0E9425007A95D1F78F
:100460000F911F916F917F910895CF93C0E0C68344
:10047000CF910881068308950681E02F089506E054
:1004800010E00E94C40000831183828202E0038393
:100490000FE004830EE005838F01402F512F0F934F
:1004A000CF93DF93C42FD52F02810A1103950283C6
:1004B000FF91EF910F91CF93DF93C1E0CF93C09164
:1004C0005D00D0915E000E943902CF91DF91CF9103
:1004D000042F152FE42FF52FC0915D00D0915E0001
:0C04E0000E943C020E2F0E9412020895A0
:00000001FF
