:020000020000FC
:100000000C94760000232629006B6C6D01020D9381
:100010002197E9F70895EF93FF936F93E5E0F0E000
:10002000E4913296FF27608164606083E5E0F0E050
:10003000E4913196FF2760816460608364E16A9592
:10004000F1F76F91FF91EF910895EF93FF930F9365
:100050005F936F937F93E5E0F0E0E4913296FF27A2
:1000600060816460608364E16A95F1F770915F007C
:10007000F89460816B7F608364E16A95F1F758E0E2
:10008000608100FD646000FF6B7F06956083000067
:1000900063E16A95F1F75A9599F76081646060832E
:1000A00070935F007F916F915F910F91FF91EF913E
:1000B00008950F93EF93FF930591003019F00E947C
:1000C0002500FACFFF91EF910F910895766D3532AB
:1000D00037372E6176722076302E310D0A000D0AE8
:1000E000506F77657265642062792000F89468E04B
:1000F00060935E006FEF60935D00882461E0962E50
:100100006FEFA62E70915400A89560915400677F00
:10011000609354006091600068616093600060E0EB
:10012000609360000E940B00EEEDF0E00E94590029
:10013000ECECF0E00E945900809254000C94F10025
:1001400018956F937F938F93602F712F002711273E
:1001500044278827769510F4060F181F660F881F0E
:100160007030C1F78F916F917F9108951F930DECBF
:100170000E94A100012F0695069506951F910895EE
:100180006F93000F602F000F000F060F6F910895FF
:100190006F937F931F930F93772763E0102F0E9435
:1001A000B6000F930E94C000101B0F9109F47395C5
:1001B00078111F936A9591F7703011F471E08F9266
:1001C0000F91005D0E9425007A95D1F70F911F9144
:1001D0006F917F910895E0E0F0E000E00083E02F70
:0E01E00008950C94EF000E2F0E94C8000895A1
:00000001FF
