:020000020000FC
:100000000C94720000232629006B6C6D0102EF93A3
:10001000FF938F93E6E0F0E0E4913296FF27808132
:1000200081608083E6E0F0E0E4913196FF278081F3
:100030008160808384E18A95F1F78F91FF91EF9140
:100040000895EF93FF930F931F938F939F93E6E091
:10005000F0E0E4913296FF2780818160808384E123
:100060008A95F1F790915F00F89480818E7F80836C
:1000700084E18A95F1F718E0808100FD816000FF3E
:100080008E7F06958083000083E18A95F1F71A95AB
:1000900099F780818160808390935F009F918F9119
:1000A0001F910F91FF91EF9108950F93EF93FF939D
:1000B0000591003019F00E942100FACFFF91EF91D5
:1000C0000F910895766D353237372E61767220762E
:1000D000302E310D0A000D0A506F7765726564206D
:1000E00062792000F89488E080935E008FEF80931F
:1000F0005D00882481E0982E8FEFA82E9091540007
:10010000A89580915400877F80935400809160006F
:1001100088618093600080E0809360000E94070007
:10012000E6EDF0E00E945500E4ECF0E00E9455009E
:10013000809254000C94AE001895F89418C048654D
:100140006C6C6F20776F726C64210D0A7F7F7F7FEC
:100150007F7F7F9D7F7F7F7F210D0A000C94B10000
:100160000F000EE311E0F8010E9455000C949D0071
:00000001FF
