:020000020000FC
:100000000C94210000232629006B6C6D0102EF93F4
:10001000FF938F93E5E0F0E0E4913296FF27808133
:1000200084608083E5E0F0E0E4913196FF278081F1
:100030008460808384E18A95F1F78F91FF91EF913D
:100040000895F89488E080935E008FEF80935D00C0
:10005000882481E0982E8FEFA82E90915400A895C7
:1000600080915400877F8093540080916000886164
:100070008093600080E0809360000E94070080927F
:1000800054000C942F011895F894FDC0EF93FF9342
:100090000F931F938F939F93E5E0F0E0E4913296E6
:1000A000FF2780818460808384E18A95F1F79091B5
:1000B0005F00F89480818B7F808384E18A95F1F7DB
:1000C00018E0808100FD846000FF8B7F06958083AF
:1000D000000083E18A95F1F71A9599F78081846091
:1000E000808390935F009F918F911F910F91FF915B
:1000F000EF9108958F9380915F00F894019F002DF8
:10010000112D80935F008F9108951F930DEC0E9435
:100110007A00012F0695069506951F9108958F93F5
:10012000000F802F000F000F080F8F9108958F93FD
:100130009F931F930F93992783E0102F0E948500B0
:100140000F930E948F00101B0F9109F49395981143
:100150001F938A9591F7903011F491E08F920F914F
:10016000005D0E9446009A95D1F70F911F918F91E3
:100170009F9108950F93EF93FF930591003019F02D
:100180000E944600FACFFF91EF910F91089574728B
:100190007565000066616C736500EF93FF9300FD69
:1001A000EEE800FDF1E000FFE4E900FFF1E00E946D
:1001B000BA00FF91EF9108954F93EF93FF93AF93A0
:1001C000BF9341E2AA1BBB27EE27FF27001F111F89
:1001D000221F331F4A9589F0AA1FBB1FEE1FFF1F66
:1001E000A81BB90BE60BF70B10F00894EFCFA80F84
:1001F000B91FE61FF71F8894E9CFCD01BF01BF915A
:10020000AF91FF91EF914F9108950F931F932F930B
:100210003F938F939F936F937F93AF939927662715
:100220007727A9E08AE00E94DC008F93AA95D1F796
:100230000F9366277AE00F91713011F0602B19F05F
:10024000005D0E9446007A95B1F7AF917F916F9162
:100250009F918F913F912F911F910F9108950C9431
:1002600032010F0041E067E076E085E094E058E07D
:10027000042F0E94CD008B019C010E940501052FD7
:080280000E9497000C94440059
:00000001FF
