:020000020000FC
:100000000C94070000232629006B6C6D0102F89404
:1000100088E080935E008FEF80935D00882481E00C
:10002000982E8FEFA82E90915400A895809154009F
:10003000877F809354008091600088618093600086
:1000400080E080936000809254000C949B0018958F
:1000500001020408102040808F93802F0F70E0E58C
:10006000F0E0E00FF81D049182958F70E4E0F0E07D
:10007000E80FF81DE491F0E08F9108958F939F931E
:1000800090915F00F8948081802B808390935F0033
:100090009F918F9108950F3F09F40895EF93FF9377
:1000A0000F930E942C0031960E943E000F91FF9109
:1000B000EF9108950F3F09F40895EF93FF930F9385
:1000C0000E942C0032960E943E000F91FF91EF910A
:1000D00008958F939F930F93009590915F00F894EC
:1000E00080818023808390935F000F919F918F91F7
:1000F00008950F3F09F40895EF93FF930F930E9423
:100100002C0032960E9469000F91FF91EF910895A3
:100110001F930F938F939F9397E18FE400008A952D
:10012000E9F79A95D1F701501040B0F79F918F9160
:100130000F911F91089500E10E944B0000E10E9481
:10014000790010E004E60E94880000E10E945A0055
:0A01500010E004E60E948800F1CFE1
:00000001FF
