:020000020000FC
:100000000C94210000232629006B6C6D0102EF93F4
:10001000FF938F93E5E0F0E0E4913296FF27808133
:1000200084608083E5E0F0E0E4913196FF278081F1
:100030008460808384E18A95F1F78F91FF91EF913D
:100040000895F89488E080935E008FEF80935D00C0
:10005000882481E0982E8FEFA82E90915400A895C7
:1000600080915400877F8093540080916000886164
:100070008093600080E0809360000E94070080927F
:1000800054000C94D1001895F894AAC0F894C09329
:100090005D00D0935E007894E7FDFF27EE0FF695A4
:1000A000EE1FCE1BDF0BFF91EF91F880FF92F980DE
:1000B000FF92FA80CB81DF2D0895EF93FF930F938A
:1000C0001F938F939F93E5E0F0E0E4913296FF2732
:1000D00080818460808384E18A95F1F790915F004C
:1000E000F89480818B7F808384E18A95F1F718E012
:1000F000808100FD846000FF8B7F06958083000077
:1001000083E18A95F1F71A9599F78081846080835D
:1001100090935F009F918F911F910F91FF91EF91AD
:1001200008958F9380915F00F894019F002D112D09
:1001300080935F008F9108951F930DEC0E949100B2
:10014000012F0695069506951F9108958F93000F30
:10015000802F000F000F080F8F9108958F939F93AA
:100160001F930F93992783E0102F0E949C000F93F9
:100170000E94A600101B0F9109F4939598111F93EC
:100180008A9591F7903011F491E08F920F91005D74
:100190000E945D009A95D1F70F911F918F919F91C9
:1001A00008950C94D4000F00EF93FF9333E03F9336
:1001B000EF93FF9333E03F9338E03F9306D00F93E4
:1001C00004D00E94AE000C944400CF93DF93C09102
:1001D0005D00D0915E000D81FE800F0DE2E00C9479
:0201E0004600D7
:00000001FF
