:020000020000FC
:100000000C94210000232629006B6C6D0102EF93F4
:10001000FF938F93E5E0F0E0E4913296FF27808133
:1000200084608083E5E0F0E0E4913196FF278081F1
:100030008460808384E18A95F1F78F91FF91EF913D
:100040000895F89488E080935E008FEF80935D00C0
:10005000882481E0982E8FEFA82E90915400A895C7
:1000600080915400877F8093540080916000886164
:100070008093600080E0809360000E94070080927F
:1000800054000C94BA001895F89491C0EF93FF9324
:100090000F931F938F939F93E5E0F0E0E4913296E6
:1000A000FF2780818460808384E18A95F1F79091B5
:1000B0005F00F89480818B7F808384E18A95F1F7DB
:1000C00018E0808100FD846000FF8B7F06958083AF
:1000D000000083E18A95F1F71A9599F78081846091
:1000E000808390935F009F918F911F910F91FF915B
:1000F000EF9108958F9380915F00F894019F002DF8
:10010000112D80935F008F9108951F930DEC0E9435
:100110007A00012F0695069506951F9108958F93F5
:10012000000F802F000F000F080F8F9108958F93FD
:100130009F931F930F93992783E0102F0E948500B0
:100140000F930E948F00101B0F9109F49395981143
:100150001F938A9591F7903011F491E08F920F914F
:10016000005D0E9446009A95D1F70F911F918F91E3
:100170009F9108950C94BD000F0043E04A3030F485
:10018000042F0E949700490D4530C1F7042F0E94AB
:100190009700FCCFFFCF01E20E949700490D443148
:1001A000D0F300E20E949700490DFBCF0C9444006D
:00000001FF
