:020000020000FC
:100000000C94210000232629006B6C6D0102EF93F4
:10001000FF938F93E5E0F0E0E4913296FF27808133
:1000200084608083E5E0F0E0E4913196FF278081F1
:100030008460808384E18A95F1F78F91FF91EF913D
:100040000895F89488E080935E008FEF80935D00C0
:10005000882481E0982E8FEFA82E90915400A895C7
:1000600080915400877F8093540080916000886164
:100070008093600080E0809360000E94070080927F
:1000800054000C94F3001895F89432C1F894C0937E
:100090005D00D0935E007894E7FDFF27EE0FF695A4
:1000A000EE1FCE1BDF0BFF91EF91F880FF92F980DE
:1000B000FF92FA80CB81DF2D0895EF93FF930F938A
:1000C0001F938F939F93E5E0F0E0E4913296FF2732
:1000D00080818460808384E18A95F1F790915F004C
:1000E000F89480818B7F808384E18A95F1F718E012
:1000F000808100FD846000FF8B7F06958083000077
:1001000083E18A95F1F71A9599F78081846080835D
:1001100090935F009F918F911F910F91FF91EF91AD
:1001200008958F9380915F00F894019F002D112D09
:1001300080935F008F9108951F930DEC0E949100B2
:10014000012F0695069506951F9108958F93000F30
:10015000802F000F000F080F8F9108958F939F93AA
:100160001F930F93992783E0102F0E949C000F93F9
:100170000E94A600101B0F9109F4939598111F93EC
:100180008A9591F7903011F491E08F920F91005D74
:100190000E945D009A95D1F70F911F918F919F91C9
:1001A00008950F93EF93FF930591003019F00E948B
:1001B0005D00FACFFF91EF910F910895747275650C
:1001C000000066616C736500EF93FF9300FDECEB3C
:1001D00000FDF1E000FFE2EC00FFF1E00E94D10041
:1001E000FF91EF9108950C9404010F00CF93DF93DA
:1001F000C0915D00D0915E000E810F930D81FF9044
:100200000F21E2E00C944600CF93DF93C0915D0094
:10021000D0915E008F9240E0409550E0509561E0B3
:10022000609501E00E94E40000E00E94E40000E02C
:100230000E94E40001E00E94E400052F0E94E40017
:10024000062F0E94E400052F00950E94E400062F6F
:1002500000950E94E400052F0095702F0E94E40095
:10026000052F061719F400E30E94AE00052F00FFCA
:1002700003C001E30E94AE00062F00FF03C002E3AB
:100280000E94AE00603019F403E30E94AE005030CB
:1002900011F4603019F004E30E94AE00503029F0F0
:1002A000603019F005E30E94AE00EF93FF935F9377
:1002B0006F939CDF0E94E400503021F4603011F411
:1002C000403011F001E001C000E0802F0E94E40006
:1002D000503021F0603011F001E001C000E0902FBB
:1002E0000E94E400052F009508830E94E4000C940E
:0202F0004400C8
:00000001FF
