:020000020000FC
:100000000C9439000E9445000E9445000E94450062
:100010000E9445000E9445000E9445000E94450044
:100020000E9445000E9445000E9445000E94450034
:100030000E9445000E9445000C9446000C947400F8
:100040000E9445000E9445000E9445000E94450014
:100050000E9445000E9445000E9445000E94450004
:100060000E9445000E94450000232629006B6C6D0C
:100070000102F89468E060935E006FEF60935D00AA
:10008000BB246FEFD62E0C94E90018956F937F93E5
:100090008F939F93EF93FF938091050190910601B9
:1000A00001968093050190930601609107016817FE
:1000B000A1F46C5E60930701E0E0F1E060816C0DFB
:1000C000619360816B1D619360816B1D61936081A1
:1000D0006B1D619360816B1D6083FF91EF919F9118
:1000E0008F916F917F911895189501020408102047
:1000F00040806F93602F0F70EAEEF0E0E00FFB1D81
:10010000049162956F70E8E6F0E0E60FFB1DE49164
:10011000F0E06F9108956F937F9370915F00F89472
:100120006081602B608370935F007F916F91089571
:100130000F3F09F40895EF93FF930F930E94790006
:1001400031960E948B000F91FF91EF9108950F3F20
:1001500009F40895EF93FF930F930E94790032966C
:100160000E948B000F91FF91EF9108956F937F9301
:100170000F93009570915F00F89460816023608315
:1001800070935F000F917F916F9108950F3F09F475
:100190000895EF93FF930F930E94790032960E9487
:1001A000B6000F91FF91EF9108951F930F936F93F6
:1001B0007F9370910501609105017617E1F36091DD
:1001C0000501061B1B09B8F77F916F910F911F91D5
:1001D000089500E10E94980000E10E94C60010E02E
:1001E00004E60E94D50000E10E94A70010E004E6AA
:0601F0000E94D500F1CFD2
:00000001FF
