:020000020000FC
:100000000C94210000232629006B6C6D0102EF93F4
:10001000FF938F93E5E0F0E0E4913296FF27808133
:1000200084608083E5E0F0E0E4913196FF278081F1
:100030008460808384E18A95F1F78F91FF91EF913D
:100040000895F89488E080935E008FEF80935D00C0
:10005000882481E0982E8FEFA82E90915400A895C7
:1000600080915400877F8093540080916000886164
:100070008093600080E0809360000E94070080927F
:1000800054000C9493011895F894D3C1EF93FF9307
:100090000F931F938F939F93E5E0F0E0E4913296E6
:1000A000FF2780818460808384E18A95F1F79091B5
:1000B0005F00F89480818B7F808384E18A95F1F7DB
:1000C00018E0808100FD846000FF8B7F06958083AF
:1000D000000083E18A95F1F71A9599F78081846091
:1000E000808390935F009F918F911F910F91FF915B
:1000F000EF910895AF93BF9381E1BB1BAA27001F27
:10010000111F8A9559F0AA1FBB1FA21BB30B10F039
:100110000894F5CFA20FB31F8894F1CFCD01BF9102
:10012000AF9108950F931F938F939F937F9374E0E4
:1001300090E08AE00E947A008F937A95C9F70F9336
:10014000882775E00F91713011F0802B19F0005D58
:100150000E9446007A95B1F77F919F918F911F91F0
:100160000F9108950F93EF93FF930591003019F0CD
:100170000E944600FACFFF91EF910F91089574729B
:100180007565000066616C736500EF93FF9300FD79
:10019000EEE700FDF1E000FFE4E800FFF1E00E947F
:1001A000B200FF91EF9108958F9380915F00F894D2
:1001B000019F002D112D80935F008F9108951F9353
:1001C0000DEC0E94D400012F0695069506951F910F
:1001D00008958F93000F802F000F000F080F8F914D
:1001E00008958F939F931F930F93992783E0102F68
:1001F0000E94DF000F930E94E900101B0F9109F489
:10020000939598111F938A9591F7903011F491E08E
:100210008F920F91005D0E9446009A95D1F70F9141
:100220001F918F919F910895AF93BF93CF93DF93C9
:10023000D801E901002711272227332750E27695BC
:1002400067959795879520F40A0F1B1F2C1F3D1F5C
:10025000DD0FCC1FBB1FAA1F5A9589F7DF91CF91E5
:10026000BF91AF9108954F93EF93FF93AF93BF93D7
:1002700041E2AA1BBB27EE27FF27001F111F221FE9
:10028000331F4A9589F0AA1FBB1FEE1FFF1FA81B33
:10029000B90BE60BF70B10F00894EFCFA80FB91FBE
:1002A000E61FF71F8894E9CFCD01BF01BF91AF9141
:1002B000FF91EF914F9108957F936F939F938F9349
:1002C000AF93C80197FF06C00DE20E9446008095DB
:1002D00090950196092F0E94F1000EE20E944600BF
:1002E00030E025E015EF01EE70E060E090E00E9464
:1002F0001401A1E08AE00E9433018F93A3950023AB
:10030000C9F71123B9F72223A9F7332399F70F91DE
:10031000005D0E944600AA95D1F7AF918F919F9101
:100320006F917F9108950C9496010F00CF93DF9306
:10033000C0915D00D0915E008F928F9240E050E0BE
:1003400060E070E082E091E034E0388333E0C15255
:10035000D04038A3890D981D89199809890D981DD9
:10036000891998098C01890D981D09A318A38C017E
:100370008919980909A318A3890D981D8C0109A34F
:1003800018A3891998098C0109A318A3042F0095B3
:10039000502F082F0095192F1095090D181D09A32E
:1003A00018A3042F009510E0C801042F0095102F0A
:1003B00000E0B801082F0095192F1095090D181DA0
:1003C000102F00E0B801890D981D8C01102F00E05E
:1003D000B801891998098C01102F00E0B8018C012F
:1003E000890D981D102F00E0B8018C01891998091A
:1003F000102F00E0B801890D981D8C01C8018919E2
:1004000098098C01C801042F00950F93052FFF90C8
:100410000F290E94C5008C010E94920009A118A119
:100420000E9492008B010E945C01052F0E94C50072
:040430000C944400E4
:00000001FF
